:02000000FC2FD3
:100F5200831603138601F501F50AB027AE2FF02F91
:100F620008308312031385006630F2007730F100F7
:100F72002430F000F00BBB2FF10BBB2FF20BBB2F79
:100F820000000230F0007008F500080010308312F3
:100F9200031385002930F2009630F100A630F000EC
:100FA200F00BD12FF10BD12FF20BD12F0330F00028
:100FB2007008F500080020308312031385006630A4
:100FC200F2007730F1002430F000F00BE62FF10B45
:100FD200E62FF20BE62F0000F501F50A080075086E
:100FE200013A0319B12F033A0319C72F013A031922
:0E0FF200DC2FFB2F0800F301F4018301A92F6F
:02400E000AFFA7
:00000001FF
